:100000000C9414000C9433000C9433000C943300C3
:100010000C9433000C9433000C9433000C94330094
:100020000C9433000C94330011241FBECFEFD0E1A9
:10003000DEBFCDBF11E0A0E0B1E0E0EFFCE000E00A
:100040000BBF02C007900D92AE3EB107D9F721E079
:10005000AEEEB1E001C01D92AF3FB207E1F70E94E2
:100060000D010C946C060C9400008093730084E8DE
:10007000809374008091740087FFFCCF0895A89846
:10008000A998089582B3837E82BB0895CF93DF93AE
:1000900000D0CDB7DEB78A83698384EA8093740089
:1000A0008091740087FFFCCF8EE40E9435008A8126
:1000B0009981892B89838C600E94350085E08A951F
:1000C000F1F70000898188600E94350087EC90E09C
:1000D0000197F1F700C0000084E9809374000F904D
:1000E0000F90DF91CF910895CF93C82F60E0807F6C
:1000F0000E94460060E08C2F8295807FCF910C9407
:1001000046001F93CF93DF93EC011881111104C0B7
:10011000DF91CF911F910895219661E0812F807F1B
:100120000E94460061E0812F8295807F0E944600F8
:10013000ECCFCF93DF9300D000D0CDB7DEB789836B
:100140009A836B837C8381E00E9474008FE39FE13C
:100150000197F1F700C0000080E80E9474008981D7
:100160009A810E94810080EC0E9474008B819C81A6
:100170000F900F900F900F90DF91CF910C94810012
:10018000A89AA9982FEF89E698E1215080409040E5
:10019000E1F700C000000E943F002FEF89E698E1E0
:1001A000215080409040E1F700C00000A898A99A33
:1001B0002FEF83ED90E3215080409040E1F700C0A5
:1001C00000000E943F002FEF89E698E12150804017
:1001D0009040E1F700C0000008952AE080E090E040
:1001E000BC0137B1307E37B9369A3699FECF44B16B
:1001F00055B1640F751F811D911DEFE3FFE131972C
:10020000F1F700C00000215061F72AE030E040E043
:1002100050E00E944503C9010895CDB7DEB761974C
:100220000FB6F894DEBF0FBECDBF87B3856087BB26
:10023000C098C298D09AD898D1981092710088E44A
:100240008093700084E0809374002FEF80E792E049
:10025000215080409040E1F700C0000083E30E94FD
:10026000740082E30E94740088E20E9474008CE0B3
:100270000E94740086E00E94740081E00E94740075
:100280008FE39FE10197F1F700C0000081B38C611B
:1002900081BB0E944200809161008E60809361006A
:1002A00080916200817F8093620080E487B987E853
:1002B00086B91092F8011092F90181E08093000153
:1002C000109201011092FA011092FB011092F401B8
:1002D0001092F5011092F2011092F3011092F601C2
:1002E0001092F7018093F1011092F0011092EE014B
:1002F0001092EF0184B3836084BBA89AA99A62E04C
:1003000071E08FE091E00E9499009FEF27EA81E67B
:10031000915020408040E1F700C000008FEF982E00
:10032000892CB12CA92C23E0422E512C12012A94A5
:100330003101660C6E019FEFC91AD90A0091FD01C7
:100340001091FE010A30110508F02DC1F801E259A3
:10035000F94F0C9467038091F8019091F901823074
:10036000910509F4AEC0D8F4892B09F066C08091DC
:10037000EE019091EF0101968093EE019093EF01D1
:10038000892BC9F01092EE011092EF0181E0809369
:10039000F10181E08093F8011092F90114C08330DB
:1003A000910509F4ACC0049709F4AEC01092F801AD
:1003B0001092F90108C08091F101813051F38091D0
:1003C000F001813031F30091000110910101E090C2
:1003D000F601F090F701A016B10619F48E149F04EF
:1003E000F1F0FF92EF928EE191E09F938F931F9235
:1003F00081E18F93DF92CF920E9478030FB6F89439
:10040000DEBF0FBECDBF0130110508F082C0B601BE
:1004100087E291E00E9499000E944200939A9FEF28
:1004200023ED80E3915020408040E1F700C00000C0
:100430006092FD017092FE0196C080916200817F02
:10044000809362002FEF81EE94E021508040904035
:10045000E1F700C000000E94ED008093F40190934A
:10046000F501809162008E60809362002FEF83EC33
:1004700099E0215080409040E1F700C000000E94C8
:10048000ED008093F2019093F30180916200817FEF
:10049000809362002091F2013091F3018091F40188
:1004A0009091F5018217930718F48901081B190B25
:1004B0000093F6011093F7012092F8013092F901B0
:1004C00082CF2091F6013091F7012035310590F46B
:1004D0002233310588F401E010E08093000190930D
:1004E00001010093FA011093FB014092F801509230
:1004F000F90169CFC801F1CF81E090E0EECF6092C1
:10050000F8017092F9015FCF1092F1011092F001A1
:100510004DCF59F4B60184E391E00E9499000E9406
:10052000420082B38C6082BB7ACFB60182E491E054
:100530000E9499000E944200929A71CF60E571E09A
:100540008FE591E00E9499009FEF2DE389E491509F
:1005500020408040E1F700C000002092FD01309271
:10056000FE017401850147015801E8CE1092FC019B
:100570000E94C00091E09093FC014092FD015092D6
:10058000FE01EFCF6BE671E088E791E00E949900F1
:100590002FEF8DE399E4215080409040E1F700C0B7
:1005A00000001092FC011092FD011092FE01D9CFC3
:1005B00062E871E08FE891E00E9499002FEF83EDEF
:1005C00090E3215080409040E1F700C00000D89AAD
:1005D00085E08093FD011092FE01C3CF6AE971E0CE
:1005E00089EA91E00E949900C99B03C0D89886E0EF
:1005F000F0CF9FEF21EE84E0915020408040E1F762
:1006000000C00000AECF66EB71E086EC91E00E9486
:1006100099009FEF2BE782E9915020408040E1F75D
:1006200000C0000087E0D5CF66ED71E08FE591E076
:100630000E9499009FEF2DE389E491502040804073
:10064000E1F700C0000088E0C4CF1092FC019FEFEA
:1006500023E284EF915020408040E1F700C0000089
:100660000E94C00091E09093FC0189E0B2CF61EE5E
:1006700071E088E791E00E9499009FEF2DE389E403
:10068000915020408040E1F78ACFA1E21A2EAA1BA8
:10069000BB1BFD010DC0AA1FBB1FEE1FFF1FA21732
:1006A000B307E407F50720F0A21BB30BE40BF50B2F
:1006B000661F771F881F991F1A9469F760957095B8
:1006C000809590959B01AC01BD01CF010895EE0F7F
:1006D000FF1F0024001C0BBE0790F691E02D09942B
:1006E00090958095709561957F4F8F4F9F4F08959E
:1006F000CF93DF93CDB7DEB72E970FB6F894DEBF5A
:100700000FBECDBF86E08C832B893C8929833A8339
:100710008D899E89813030E8930710F080E090E861
:1007200001978D839E83AE01475E5F4F6F89788D01
:10073000CE0101960E94B4034D815E8157FD0BC02E
:10074000EF81F8854E175F070CF4FA012B893C897D
:10075000E20FF31F10822E960FB6F894DEBF0FBE85
:10076000CDBFDF91CF9108955F926F927F928F926C
:100770009F92AF92BF92CF92DF92EF92FF920F9330
:100780001F93CF93DF93CDB7DEB72B970FB6F894B7
:10079000DEBF0FBECDBF6C017B018A01FC0116825A
:1007A0001782838181FFF1C13AE0532EF601238144
:1007B000F70123FD859123FF81917F01811509F4C4
:1007C00037C1853239F423FD959123FF91917F0143
:1007D000953229F4B60190E00E94DE05E7CF30E0C3
:1007E000912C612C712CF0E27F1640F59B32D9F0F0
:1007F00058F49032D1F09332F1F09E3291F576FCBC
:1008000017C1689476F806C09D3291F09033C1F418
:10081000689470F8F70123FD959123FF91917F0172
:100820009111E1CF28C0689471F8689472F8F2CF02
:10083000689473F8EFCF689474F8ECCF77FC1BC022
:1008400080ED890F8A30C8F676FE05C0959C800D34
:100850001124982EDFCF659C800D1124682E7F2AED
:10086000D9CF9C3619F4689477F8D4CF9C3409F426
:1008700045C0983679F2892F8F7D8554833008F4EE
:100880003FC0933609F461C0933709F46BC09335C8
:1008900009F477C0943619F0993609F0A4C0F8012C
:1008A00077FE9AC061917191819191918F01272D6D
:1008B0002F76822E97FF04C00E947003689487F8F9
:1008C0002AE030E05E014FEFA41AB40AA5010E94AD
:1008D0000E06782E7A1886FEE1C0882D8E7F791458
:1008E00008F0DBC084FE2FC182FC23C12EEE8222E1
:1008F000B92C882D867809F4DDC020C131E08ACF7B
:10090000311501F1085F1F4F8FE3898321E0822EAB
:10091000912C5E012FEFA21AB20AE89477F873FCCB
:1009200003C086149104F0F18114910409F041C0D0
:10093000611409F43BCFB60180E290E00E94DE052D
:100940006A94F6CF0C5F1F4FDFCFF8018081898357
:100950000E5F1F4F91E0892E912C5E01FFEFAF1AC1
:10096000BF0ADBCFF801A190B1908F01692D70E033
:1009700076FC02C06FEF7FEFC5010E94D3054C01EA
:10098000CCCFF801A190B1908F01692D70E076FC79
:1009900002C06FEF7FEFC5010E94C8054C0168944B
:1009A00077F8BDCFB60180E290E00E94DE056A9440
:1009B000B8CFF50177FC859177FE81915F01B60193
:1009C00090E00E94DE0581E0611001C080E0681ABD
:1009D000F1E08F1A9108A8CF61917191872F880F4C
:1009E000880B982F63CF9537C9F4872CE89484F847
:1009F0002AE030E0F80187FE4BC06191719181914E
:100A000091918F015E01FFEFAF1ABF0AA5010E940D
:100A10000E06782E7A18E89487F85DCF872D897FA7
:100A2000882E903729F1E8F4983539F19F3669F12D
:100A3000F601868197812B960FB6F894DEBF0FBE24
:100A4000CDBFDF91CF911F910F91FF90EF90DF907D
:100A5000CF90BF90AF909F908F907F906F905F905E
:100A60000895983729F774FC05C020E130E0C2CF23
:100A7000689484F8689482F8F8CF74FE03C0E72D78
:100A8000E6608E2E20E132E0B5CF28E030E0B2CF34
:100A90006191719180E090E0B4CF882EB72C84FEF4
:100AA00028CFFE01E70DF11D8081803309F044C09D
:100AB00049EE842283FC0EC080FE51C0972CB614F0
:100AC00018F4960C9B18B62C862D8B196B1408F411
:100AD00080E0B80EB61408F044C06B1884FE43C022
:100AE000B60180E390E00E94DE0582FE09C088E541
:100AF00090E081FC02C088E790E0B6010E94DE052C
:100B00007914E0F15E018FEFA81AB80A7A9482E0B6
:100B1000882E912C8C0E9D1E870C911CF4018291C5
:100B20004F01B60190E00E94DE058A149B04B1F7E4
:100B3000FFCEB92C882EB5CF82FC02C0B394BACFB9
:100B4000B394B394B7CFB92C882ED3CEB60180E23C
:100B500090E00E94DE05A394A614C0F3B5CFAB2CA1
:100B6000FBCF612CBBCF882D867851F280E281FCCF
:100B70008BE287FC8DE2B60190E0C0CFB60180E346
:100B800090E00E94DE059A94BBCF8FEF9FEF53CF8A
:100B9000FC010590615070400110D8F78095909548
:100BA0008E0F9F1F0895FC0161507040019001104D
:100BB000D8F7809590958E0F9F1F08950F931F93E0
:100BC000CF93DF93182F092FEB018B8181FD09C093
:100BD0000FEF1FEF812F902FDF91CF911F910F917A
:100BE000089582FF14C02E813F818C819D8128173A
:100BF00039073CF4E881F981CF0101968883998314
:100C000010838E819F8101968E839F83E3CFE88539
:100C1000F985812F0995892BA1F3DACFFA01AA274B
:100C2000283051F1203181F1E8946F936E7F6E5F2F
:100C30007F4F8F4F9F4FAF4FB1E03ED0B4E03CD0DD
:100C4000670F781F891F9A1FA11D680F791F8A1FC0
:100C5000911DA11D6A0F711D811D911DA11D20D027
:100C600009F468943F912AE0269F11243019305DE1
:100C70003193DEF6CF010895462F4770405D4193D2
:100C8000B3E00FD0C9F7F6CF462F4F70405D4A331F
:100C900018F0495D31FD4052419302D0A9F7EACFE7
:100CA000B4E0A6959795879577956795BA95C9F716
:100CB00000976105710508959B01AC010A2E069409
:100CC0005795479537952795BA95C9F7620F731FC2
:100CD000841F951FA01D0895F894FFCFAB019E02BD
:100CE000B602C202D802EE0203031403250337033F
:100CF000010053595354454D20535441525400530D
:100D00004D41525420415155415249554D0044499D
:100D100046463A2533750057617465723A20434C54
:100D200045414E0057617465723A20434C4F55441B
:100D300059002121205741524E494E472021210080
:100D4000576174657220436C65616E696E6700520D
:100D500061696C2043617573653A00436175736521
:100D60003A20436C65616E005261696C20446F6E7D
:100D70006500436F6D6D616E642053656E7400464F
:100D80006565642053746172740053797374656D82
:100D9000204F706572617465004665656420527508
:100DA0006E6E696E67005261696C20576169746983
:100DB0006E672E2E2E00466565642052657175653E
:100DC0007374204F4E0041667465722046656564F9
:0E0DD0000043617573653A2046656564000056
:00000001FF
