:100000000C9414000C9433000C9433000C943300C3
:100010000C9433000C9433000C9433000C94330094
:100020000C9433000C94330011241FBECFEFD0E1A9
:10003000DEBFCDBF11E0A0E0B1E0E4E6F7E000E014
:100040000BBF02C007900D92A237B107D9F721E08C
:10005000A2E7B1E001C01D92A638B207E1F70E9405
:1000600021010C94B0030C9400008093730084E889
:10007000809374008091740087FFFCCF0895A89846
:10008000A998089582B3887F82BB0895C098C29AC8
:10009000982F9160B99A88E090FF31C0C19AC09AB8
:1000A0002AE02A95F1F700C0C0982AE02A95F1F7D6
:1000B00000C09695815081F7C198B9989AE09A95B9
:1000C000F1F700C020E030E041E0B19B07C0642FB1
:1000D000022E01C0660F0A94EAF7862BC09A9AE0B6
:1000E0009A95F1F700C0C0989AE09A95F1F700C090
:1000F0002F5F3F4F2830310541F7C2980895C198CE
:10010000CECFCF93DF9300D0CDB7DEB78A8369839C
:1001100084EA809374008091740087FFFCCF8EE4A2
:100120000E9435008A819981892B89838C600E9485
:10013000350085E08A95F1F70000898188600E948A
:10014000350087EC90E00197F1F700C0000084E9EA
:10015000809374000F900F90DF91CF910895CF930B
:10016000C82F60E0807F0E94810060E08C2F829524
:10017000807FCF910C9481001F93CF93DF93EC018C
:100180001881111104C0DF91CF911F91089521961C
:1001900061E0812F807F0E94810061E0812F829544
:1001A000807F0E948100ECCFA89AA9982FEF89E662
:1001B00098E1215080409040E1F700C000000E948B
:1001C0003F002FEF89E698E1215080409040E1F711
:1001D00000C00000A898A99A2FEF83ED90E321506A
:1001E00080409040E1F700C000000E943F002FEFE8
:1001F00089E698E1215080409040E1F700C000007E
:1002000008952EE180E090E0BC0137B1307E37B92F
:10021000369A3699FECF44B155B1640F751F811DD2
:10022000911DEFE1FEE43197F1F700C0000021508D
:1002300061F72EE130E040E050E00E948E03C901FA
:10024000089584B7806884BF84B7806884BF87B30B
:10025000856087BBC098C298BD9A82E88FBD8AE14D
:100260008EBD8FE39CE997BD86BD80ED97E09BBD79
:100270008ABD9BBD8ABD8FEF8093010180930001F1
:100280002FEF83ED90E3215080409040E1F700C0D4
:1002900000001092710088E48093700084E08093E5
:1002A00074002FEF80E792E0215080409040E1F70A
:1002B00000C0000083E30E94AF0082E30E94AF0011
:1002C00088E20E94AF008CE00E94AF0086E00E94AE
:1002D000AF0081E00E94AF008FE39FE10197F1F74B
:1002E00000C0000081B3876081BB0E944200809102
:1002F00061008E608093610080916200817F8093B5
:10030000620080E487B987E886B910928201109272
:10031000830181E080930201109203011092840115
:100320001092850110927E0110927F0110927C0143
:1003300010927D01109280011092810180937B01C7
:1003400010927A01109278011092790184B383603F
:1003500084BBA89AA99A81E00E94AF008FE39FE135
:100360000197F1F700C0000080E80E94AF0084E030
:1003700091E00E94BC0080EC0E94AF0083E191E01C
:100380000E94BC009FEF23ED80E39150204080400D
:10039000E1F700C000000FEF10E08AE0B82E98E807
:1003A000E92E93E1F92E20EDC22E27E0D22E80E82F
:1003B0000E944600982F929597708F709B9D800D9C
:1003C00011248093720182E80E944600982F929532
:1003D0009F708F709B9D800D11248093730184E822
:1003E0000E944600982F9F70282F22952F7087FF1C
:1003F000A1C020FD965F80729C3009F096C08115E7
:1004000009F49DC09093740186E80E944600982FDD
:1004100092959F708F709B9D800D11248093750124
:1004200088E80E944600982F92959F708F709B9D40
:10043000800D1124809376018CE80E944600982F4D
:1004400092959F708F709B9D800D112480937701F2
:1004500080917401893019F08E3009F072C090914A
:10046000730191116EC090910101891304C0A09095
:100470000001A114B1F1FBBCEABC9FEF2BE782E9BC
:10048000915020408040E1F700C00000DBBCCABCB6
:100490009FEF23ED80E3915020408040E1F700C0C2
:1004A0000000FBBCEABC9FEF2BE782E991502040A3
:1004B0008040E1F700C00000DBBCCABC9FEF23ED29
:1004C00080E3915020408040E1F700C0000080911F
:1004D0007401809301018091730180930001AA242B
:1004E000A39480918201909183018230910509F457
:1004F000B9C048F5892B09F06EC0809178019091C0
:10050000790101968093780190937901059728F1FC
:10051000109278011092790191E090937B0121E093
:10052000209382011092830120C0811509F46ACFC3
:10053000945F68CF23702B9D900D112463CF90E0C2
:1005400061CFA12CCECF8330910509F4A6C00497CA
:1005500009F4A5C010928201E5CF80917B01813022
:10056000F1F280917A018130D1F2C0910201D091F3
:100570000301909084010C171D07F1F081E00E94A7
:10058000AF008FE39FE10197F1F700C00000C13099
:10059000D10508F089C080E80E94AF0080E291E0B8
:1005A0000E94BC0080EC0E94AF008DE291E00E94AE
:1005B000BC000E944200919A91109DC0A1109EC063
:1005C0008FEF93ED20E3815090402040E1F700C091
:1005D00000008E01ECCE80916200817F80936200EA
:1005E0008FEF93ED20E3815090402040E1F700C071
:1005F00000000E94010180937E0190937F01809111
:1006000062008E60809362008FEF97EA21E681504E
:1006100090402040E1F700C000000E94010180935B
:100620007C0190937D0180916200817F80936200C4
:1006300080917C0190917D0120917E0130917F011C
:100640002817390760F4821B930B809380019093E5
:10065000810182E0809382011092830186CF80E045
:1006600090E0F3CF20918001309181012035310558
:1006700070F42233310578F431E0809302019093D5
:100680000301309384011092850183E0E3CF80E081
:1006900090E030E0F2CF81E0FBCF84E0DBCF10923E
:1006A0007B0110927A0156CFA1F480E80E94AF003E
:1006B0008AE391E00E94BC0080EC0E94AF0088E4D5
:1006C00091E00E94BC000E94420082B3836082BB22
:1006D00073CF80E80E94AF0086E591E00E94BC00E5
:1006E00080EC0E94AF0081E691E00E94BC000E9475
:1006F0004200909A61CF91E0A9120CC02FEF83E2E3
:1007000094EF215080409040E1F700C000000E942B
:10071000D40056CF21E0921253CFF9CFA1E21A2E86
:10072000AA1BBB1BFD010DC0AA1FBB1FEE1FFF1F95
:10073000A217B307E407F50720F0A21BB30BE40BE5
:10074000F50B661F771F881F991F1A9469F760952C
:100750007095809590959B01AC01BD01CF010895E6
:04076000F894FFCF3B
:10076400FFFF0100536D61727420417175617269FC
:10077400756D0053797374656D20537461727400E0
:1007840057617465723A20434C45414E005374617D
:100794007475733A20474F4F440057617465723A39
:1007A400204E4F524D414C005374617475733A207E
:1007B400434845434B0057617465723A20424144B3
:1007C400005261696C20436C65616E696E672E2E00
:0207D4002E00F5
:00000001FF
